:020000020000FC
:020000001FC01F
:100040000FE10AB900E004B901E005B900270BB9D6
:10005000222715D0589A4FD0589816E0589A2FD08A
:1000600058982DD01A95D1F7599A3CD059985A9A48
:1000700045D0222309F00CD05A982227EACF189BAA
:1000800001C0089522D0189B01C0089521E0089571
:100090005B9A2CD05B9814E008955B9A10D01A9567
:1000A000E1F75C9A08953F9308953AEF08950000B0
:1000B00000003A95E1F71A95C1F73F9108951EE3C4
:1000C000089506D01A95E9F708951DE0ECDF08952C
:1000D0001AEF0895000000001A95E1F708951AEF4D
:1000E000E2DF0895FCDFFBDFFADF0895F8DFF7DFDA
:1000F000F6DFF5DF0895F3DFF9DF0895F7DFF6DFC8
:02010000089560
:00000001FF
