:020000020000FC
:100000000C94030040C0789400E06AB90FEF04B983
:1000100018E00DBF1EBF01E00DBB12E02093690088
:1000200000C02A982998289A2C9A0E945F000E9462
:100030005F000E945F000E945F000E945F002A989C
:1000400000C02A9829982C9A28980E945F00289A24
:100050000E945F0028980E945F00289A0E945F001B
:1000600028980E945F0000C02C9A299A0E945F0085
:100070000E945F0000C029982C9A2A9A0E945F0073
:100080000E945F00CECF28982C9A299A0E945F0088
:100090000E945F002C9829982B9A2A9A0E945F0050
:1000A0002B980E945F002B9A0E945F002B980E9461
:1000B0005F002B9A0E945F002B982C9A18952DE2D6
:1000C0003FEF4FEF4A95F1F73A95E1F72A95D1F7CF
:0200D000089591
:00000001FF
